:1001A2000915FFFEFDFBF7EFDFBF7F0B083F065B84
:0C01B2004F666D7D077F6F400213FFFE5B
:0C01820012018E7F0A12013D7F907E0169
:10018E00EF4E600F7D027CEFDCFEDDFCEF1F70F0AA
:03019E001E80EDD3
:0101A100223B
:1001BF00C2A37F327E0012018ED2A37F327E000255
:0201CF00018E9F
:02013D00A90710
:10013F00E4FAE9D3940A503AE4F590D2A3FB74158C
:10014F002BF8E6F580D2A7C2A7740829F8E6F58048
:10015F00D2A6C2A67F017E0012018E0BBB09DF0A59
:10016F00EAC3946440D2D2A6E4F580C2A67590FF8C
:02017F00C2A319
:01018100225B
:02000300C20039
:1000050075210075220A30000302009275230075E0
:100015002409D2A7851480C2A7D2A674082524F87E
:10002500E6F580C2A6E521703FE52214602F24FC89
:10003500501724FA500280307FE87E0312018EE5C6
:1000450022152270231521801F1201BF7F847E0394
:1000550012018EE5221522700F1521800BD2007535
:1000650021007522011201BFE52245217007D2004A
:100075001201BF801220000FE524152470021523FC
:10008500C3E5239400508B20000302000B300013BE
:100095007FE87E031201827F0A12013D7F907E0177
:0B00A500120182200003020005D200BF
:0100B000222D
:030000000200B14A
:0C00B100787FE4F6D8FD7581240200F889
:1000BD00020003E493A3F8E493A34003F68001F256
:1000CD0008DFF48029E493A3F85407240CC8C33344
:1000DD00C4540F4420C8834004F456800146F6DF13
:1000ED00E4800B01020408102040809001A2E47E00
:1000FD00019360BCA3FF543F30E509541FFEE49308
:10010D00A360010ECF54C025E060A840B8E493A3CE
:10011D00FAE493A3F8E493A3C8C582C8CAC583CAF9
:10012D00F0A3C8C582C8CAC583CADFE9DEE780BEB1
:0101BE000040
:00000001FF
